:1000000006308A00492E0000D6376C3A61356510FB
:10001000D4326D386539613A7539611025192E1958
:1000200066100D050000D4326D386539613A7539B6
:10003000611025192E1966100D0500002D30840061
:1000400083130008031932280130F800F701F70B79
:100050002728F80B26284A30F700F70B2D283028E0
:10006000800B24288A110A12772E8E30F70045085B
:10007000F8004408F900FA01F808031D4928790836
:10008000F800F9010830F702F808031D4928F701C4
:1000900051280310F81B5028F90DF80DF7034928D3
:1000A000F813080040080319C228C80044080319BF
:1000B000C228C807031863287F30C802031CC2285F
:1000C0000319C22867288130C8070318C2284808C6
:1000D000F700F801F901FA014108CC00CC174208F9
:1000E000CB004308CA001830C800C9014A1C902838
:1000F0004708FA07031C8228F90A031D8228F80A18
:100100000319C9174608F907031C8928F80A0319B7
:10011000C9174508C200C2174208F8070318C917D3
:10012000C90DF80CF90CFA0CCC0CCB0CCA0C031052
:10013000C80B75280130F7070318C228F81BA72839
:10014000CC0DFA0DF90DF80DF7030319C228CC1FD9
:10015000B828FA0A031DB828F90A031DB828F80AB6
:10016000031DB828F80CF90CFA0CF70A0319C22879
:100170004108C9004508C906C91FC028F817C62884
:10018000F813C628F701F801F901FA010800400840
:1001900003198C29CC00440803198C29CC02031CB8
:1001A000D6287F30CC0703188C29DC288130CC027C
:1001B000031C8C2903198C294C08F700F801F9015C
:1001C000FA01CB014108CA00CA174208C900430816
:1001D000C8001930CC004708C8020318FF280130B6
:1001E000C9020318FF28CA020318FF28CB0203180C
:1001F000FF28CB0ACA0AC90A4708C8073129460896
:10020000C90203181A290130CA0203181A29CB029D
:1002100003181A29CB0ACA0A4608C9074708C8079B
:10022000031C3129C90A031D3129CA0A031D3129BA
:10023000CB0A312945088038CA0203183029013019
:10024000CB0203183029CB0A45088038CA07460874
:10025000C907031C0E29CA0A031D0E29CB0A0E2941
:100260007A14CC0B34293F290310C80DC90DCA0DCF
:10027000CB0D0310FA0DF90DF80DCD0DEB284D1C2B
:1002800047290310F80CF90CFA0CCD0C4A29F70396
:1002900003198C29CD1B73290310C80DC90DCA0D74
:1002A000CB0D4708C80203185F290130C9020318A3
:1002B0005F29CA0203185F29CB02031C8229460862
:1002C000C90203186A290130CA0203186A29CB023D
:1002D000031C822945088038CA020318732901309B
:1002E000CB02031C8229FA0A031D8229F90A031D85
:1002F0008229F80A031D8229F70A03198C29F80CB0
:10030000F90CFA0C4108CC004508CC06CC1F8A2910
:10031000F8179029F8139029F701F801F901FA016B
:100320000800831603178C170C1400000000031834
:10033000C12983120C087F390313B10003170D087C
:100340000313B20003170F080313B30031080C1E88
:10035000A7299900320803178D00031333080317E8
:100360008F0083168C170C140000000083120313F7
:10037000B00BBB29BE2983160317C129E0298316B8
:10038000031783120C0D0E0D7F390313B1000317F1
:100390000D080313B20003170F080313B30031084D
:1003A0000C1ED0299900320803178D00031333085F
:1003B00003178F008D0A03198F0A0313B00B9129BD
:1003C0000800F701F801F901FA01C501C601C701EA
:1003D000C801440843044204410403191F2A203081
:1003E000C9000310BD0DBE0DBF0DC00DC50DC60D5E
:1003F000C70DC80D44084802031D082A43084702D8
:10040000031D082A42084602031D082A4108450226
:10041000031C192A4108C5024208031C420FC602E8
:100420004308031C430FC7024408031C440FC802BF
:100430000314F70DF80DF90DFA0DC90BF12945302C
:100440008400831308000408B5003408B7000319BA
:10045000422A3308C3003208C2003108C100300804
:10046000C000C701C6012030C5008230C400522040
:100470007A08B3007908B2007808B1007708B000B4
:10048000B70B292A3308C0003208BF003108BE006C
:100490003008BD003D08B63CBD00FA013E08C10071
:1004A000BE170310BE0CBF0CC00CFA0CF90CF80CF4
:1004B000F70CBD0B512AC11F682AF709F809F90981
:1004C000FA09F70A0319F80A0319F90A0319FA0ACB
:1004D0007A08B3007908B2007808B1007708B00054
:1004E000B31F7F2AB503B516B009B109B209B30924
:1004F000B00A0319B10A0319B20A0319B30A3B304F
:10050000BC009A30BB00CA30BA00B9010A30B7004B
:1005100034080319B50A3308C0003208BF00310897
:10052000BE003008BD003C08C4003B08C3003A08C8
:10053000C2003908C100E1210008B000840A0008A7
:10054000B100840A0008B200840A0008B300FD303C
:100550008407F708031DBF2A340A37020319BF2A8C
:1005600035080319C12A0F3937020319B92A0318AC
:10057000F52AB51BF52A351BC12A2030F02A203078
:10058000B505B51ED02AB5123408031DB50377088A
:10059000B5002D300C1ECA2A99003508F700B501A8
:1005A00034083702031DDF2A7708B5002E300C1EF1
:1005B000D72A99003508F7002030B50500303030D3
:1005C000B51EF02AB5123408031DB5037708B5002F
:1005D0002D300C1EE92A99003508F700B50130309E
:1005E000F70777080C1EF22A99003C08C0003B0868
:1005F000BF003A08BE003908BD00C401C301C201F2
:100600000A30C100E1217A08BC007908BB007808F3
:10061000BA007708B900B70B8B2A08004108C80058
:100620004508C806C81F192B03110310C11B03146A
:100630004C2B4108C8004408C9004008C9020319EE
:10064000272BC81F4C2B0308013A83004C2B45086D
:10065000C9004108C9020319332BC81F4C2B0308DA
:10066000013A83004C2B4608C9004208C90203190D
:100670003F2BC81F4C2B0308013A83004C2B470823
:10068000C9004308C90203194B2BC81F4C2B030890
:10069000013A83004C2B031008008E30F70040080D
:1006A000F7024108F9004208F800F917F7080319A2
:1006B000642B0310F908031D602BF8080319642B41
:1006C000F90CF80CF70B592BC11F6B2BF809F90922
:1006D000F80A0319F90A080080308318C906CE0108
:1006E000CF014508CD004908CD06440803195C2C0C
:1006F000CC00F70048080319652CCC020319012C23
:10070000031CBF2B4908D200D2174A08D1004B085E
:10071000D000CF010310D20CD10CD00CCF0CCC0BDD
:10072000892BCD1F962B4E14792C4E104C104E1643
:100730004730840083138E2C4E12CD1BA92B4C1CEA
:10074000B42BD20CD10CD00CCF0CF70A0319742C9B
:10075000B42BD21BB72B0310CF0DD00DD10DD20D62
:10076000F7030319742CA92B4E17212C4E1345089F
:10077000CD00CD1FBD2BD2176D2CD2136D2C480888
:10078000CC00F7004408CC024508D200D217460836
:10079000D1004708D000CF010310D20CD10CD00CEF
:1007A000CF0CCC0BCB2BCD1FD82BCE14792CCE104D
:1007B0004C10CE164B30840083138E2CCE12CD1BE2
:1007C000EB2B4C1CF62BD20CD10CD00CCF0CF70A17
:1007D0000319742CF62BD21BF92B0310CF0DD00D5F
:1007E000D10DD20DF7030319742CEB2BCE17212C4E
:1007F000CE134908CD00CD1FFF2BD2176D2CD2137D
:100800006D2C4908D200D2174A08D1004B08D000FD
:10081000CD1F0E2CD2134E15792C4E11CF014C103A
:100820004730840083138E2CCD1B372C4508CD0018
:100830004C1C212CD20CD10CD00CCF0CF70A031974
:10084000742CCF1F322CD00A031D322CD10A031D69
:10085000322CD20A031D322CD20CD10CD00CF70A48
:100860000319742C4E1BB62BCE1BF82B562C803044
:10087000D206D21F3F2C792C4908CD004C2C4508BC
:10088000CD00D208031D4C2CD108031D4C2CD008E0
:10089000031D4C2CF7016D2CD21B562C0310CF0DD1
:1008A000D00DD10DD20DF70B4C2C742CCD1F5A2C22
:1008B000D2176D2CD2136D2C4808F7004908D200CE
:1008C0004A08D1004B08D0006D2C4408F7004508B9
:1008D000D2004608D1004708D0005208F80051085D
:1008E000F9005008FA00AC2CF701F801F901FA01FF
:1008F000AC2CCF01D009D109D209CF09CF0A031DF1
:10090000872CD00A031D872CD10A0319D20A4E184E
:10091000952BCE18D72B4E190D2C3C2C0008D00748
:10092000031C982CD10A031D982CD20A03194C14CD
:1009300084030008D107031CA02CD20A03194C140D
:1009400084030008801F803AD20703184C144E1A03
:100950009C2BCE1ADE2B142C08002F08B3002E0877
:10096000B2002D08B1002C08B000B4013F103308CC
:10097000B8003208B7003108B6003008B5003308B7
:10098000C3003208C2003108C1003008C000C701EE
:10099000C601C501C4010E23031CD22C3F14360826
:1009A000803AB6003808C3003708C2003608C100D4
:1009B0003508C000C701C601C5018E30C4000E2332
:1009C0000318E42C031DFB2C3808C3003708C200B1
:1009D0003608C1003508C0004D237908C5007808E5
:1009E000C40035207A08BC007908BB007808BA003A
:1009F0007708B900B82D3808C3003708C200360898
:100A0000C1003508C0008030C7009630C6001830DD
:100A1000C5009630C4000E23031CB02D3808C30057
:100A20003708C2003608C1003508C000C701C6013A
:100A3000C5018E30C400C7207A08C3007908C200FF
:100A40007808C1007708C0004D237908BE007808F7
:100A5000BD003808C3003708C2003608C100350899
:100A6000C000C701C601C5018E30C400C720770889
:100A7000C0007808C1007908C2007A08C3003E08A7
:100A8000C5003D08C400352083144308C700420850
:100A9000C6004108C5004008C4007A08CB007908A8
:100AA000CA007808C9007708C8006C23C301C201D6
:100AB000C1018E30C0007A08C7007908C6007808E6
:100AC000C5007708C40052207A08B8007908B7003A
:100AD0007808B6007708B5003E08C5003D08C40098
:100AE0003520C301C201C1018E30C0007A08C700A1
:100AF0007908C6007808C5007708C40052207A0833
:100B0000BC007908BB007808BA007708B90038083B
:100B1000C3003708C2003608C1003508C0004D23A5
:100B20007908C5007808C400352083103C08C70048
:100B30003B08C6003A08C5003908C4007A08CB0053
:100B40007908CA007808C9007708C8006C237A08B9
:100B5000BC007908BB007808BA007708B900B82D46
:100B60003808BC003708BB003608BA003508B900A1
:100B70003808C3003708C2003608C1003508C00075
:100B80004D237908C5007808C4003520831438083F
:100B9000C7003708C6003608C5003508C4007A0803
:100BA000CB007908CA007808C9007708C8006C2310
:100BB0007A08B8007908B7007808B6007708B50059
:100BC0003F1CE52D3A08803ABA003808C3003708C0
:100BD000C2003608C1003508C000C701C601C50102
:100BE000C4010E2303192B2E3F1C102EB408031D25
:100BF000102E83143C08C7003B08C6003A08C50005
:100C00003908C400CB01CA01C9017F30C8006C2378
:100C10007A08BC007908BB007808BA007708B900E8
:100C20003F182B2E340B2B2E83103C08C7003B089B
:100C3000C6003A08C5003908C400CB01CA01C90181
:100C40007F30C8006C237A08BC007908BB007808A4
:100C5000BA007708B9003308C3003208C20031086F
:100C6000C1003008C000C701C601C501C4010E2380
:100C7000031D3E2EBC01BB01BA01B9013908F700C2
:100C80003A08F8003B08F9003C08FA008A110A12F9
:100C9000F82E840183131F308305193083169900C1
:100CA000A630980090308312980083161F149F146A
:100CB0001F159F1107309C008312A001A10183160C
:100CC0001F109F101F119F111F1383121F179F17B3
:100CD00083169F1783121F140830F8001F08C739A6
:100CE00078049F000430AC00FA30AD001E28AC0B35
:100CF000742E1F151F197A2E83161E088312A20048
:100D00001E08A3002308C5002208C40035207A0865
:100D1000C3007908C2007808C1007708C000C70185
:100D2000C6012030C5008130C40052207708AC00D5
:100D30007808AD007908AE007A08AF00C3007908E2
:100D4000C2007808C1007708C000C701C030C600E3
:100D50007F30C5008830C400C7207A08A700790812
:100D6000A6007808A5007708A400C301C2012030BE
:100D7000C1008330C0002708C7002608C600250828
:100D8000C5002408C40052207A08AB007908AA00E4
:100D90007808A9007708A800043003178D000030F8
:100DA0008F00031014300313B000912189308400A8
:100DB0002708B3002608B2002508B1002408B000B7
:100DC0000230B400232220300C1EE42E99000D3096
:100DD0000C1EE82E99000A300C1EEC2E99002B08F0
:100DE000AF002A08AE002908AD002808AC00AD2CE1
:100DF0007708AC007808AD007908AE007A08AF003B
:100E0000133003178D0000308F0003100C300313D4
:100E1000B0009121893084002F08B3002E08B20061
:100E20002D08B1002C08B0000230B400232220307D
:100E30000C1E182F99000D300C1E1C2F99000A3023
:0A0E40000C1E202F99006C2E630099
:02400E00713F00
:00000001FF
;PIC16F877A
;CRC=D543  CREATED="17-jun.-21 17:29"
