:1000000008308A0000280000AD16AD16AD16AD16FA
:10001000AD16AD16AD16AD16AD16AD16AD16AD16C8
:10002000AD16AD16AD16AD060A005B2AE536F03208
:10003000F230F43AF2305D102D1FA0123217323335
:10004000A0060A005B286F39E3346537F4372024B3
:10005000D32EA0163E1025192E1966100D0500018D
:100060005B22E939F430EE31E9305D102D1FA0122A
:100070006610E3360D0500015B2AE9326D38EF2E7C
:10008000A0163E102533A039E5330D050000831678
:1000900003178C170C140000000083120C087F3922
:1000A00003198D280313C10003170D080313C200A1
:1000B00003170F080313C30041080C1E5D289900A5
:1000C000420803178D000313430803178F0083169C
:1000D0008C170C140000000083120C0D0E0D7F39DC
:1000E00003198D280313C10003170D080313C20061
:1000F00003170F080313C30041080C1E7D28990045
:10010000420803178D000313430803178F008D0A5D
:1001100003198F0A03134728031703138A150A12BA
:1001200042288E30F7005A08F8005908F900FA0101
:10013000F808031DA5287908F800F9010830F7022E
:10014000F808031DA528F701AD280310F81BAC28FB
:10015000F90DF80DF703A528F81308005508031941
:100160001E29DD00590803191E29DD070318BF28C1
:100170007F30DD02031C1E2903191E29C32881308C
:10018000DD0703181E295D08F700F801F901FA01DF
:100190005608E100E1175708E0005808DF00183062
:1001A000DD00DE015F1CEC285C08FA07031CDE287A
:1001B000F90A031DDE28F80A0319DE175B08F907A0
:1001C000031CE528F80A0319DE175A08D700D717C9
:1001D0005708F8070318DE17DE0DF80CF90CFA0CB7
:1001E000E10CE00CDF0C0310DD0BD1280130F70728
:1001F00003181E29F81B0329E10DFA0DF90DF80D5E
:10020000F70303191E29E11F1429FA0A031D1429F3
:10021000F90A031D1429F80A031D1429F80CF90C16
:10022000FA0CF70A03191E295608DE005A08DE06E2
:10023000DE1F1C29F8172229F8132229F701F801DB
:10024000F901FA01080055080319E829E1005908E5
:100250000319E829E102031C32297F30E107031862
:10026000E82938298130E102031CE8290319E8292B
:100270006108F700F801F901FA01E0015608DF0012
:10028000DF175708DE005808DD001930E1005C0870
:10029000DD0203185B290130DE0203185B29DF024F
:1002A00003185B29E00203185B29E00ADF0ADE0A73
:1002B0005C08DD078D295B08DE0203187629013012
:1002C000DF0203187629E00203187629E00ADF0A24
:1002D0005B08DE075C08DD07031C8D29DE0A031DB1
:1002E0008D29DF0A031D8D29E00A8D295A088038DF
:1002F000DF0203188C290130E00203188C29E00A80
:100300005A088038DF075B08DE07031C6A29DF0A0A
:10031000031D6A29E00A6A297A14E10B90299B29B6
:100320000310DD0DDE0DDF0DE00D0310FA0DF90DEC
:10033000F80DE20D4729621CA3290310F80CF90CF3
:10034000FA0CE20CA629F7030319E829E21BCF29CE
:100350000310DD0DDE0DDF0DE00D5C08DD0203187E
:10036000BB290130DE020318BB29DF020318BB29B9
:10037000E002031CDE295B08DE020318C6290130F7
:10038000DF020318C629E002031CDE295A08803860
:10039000DF020318CF290130E002031CDE29FA0A2C
:1003A000031DDE29F90A031DDE29F80A031DDE29D3
:1003B000F70A0319E829F80CF90CFA0C5608E100C1
:1003C0005A08E106E11FE629F817EC29F813EC2991
:1003D000F701F801F901FA0108005608DD005A0892
:1003E000DD06DD1FF82903110310D61B03142B2A89
:1003F0005608DD005908DE005508DE020319062AFA
:10040000DD1F2B2A0308013A83002B2A5A08DE003D
:100410005608DE020319122ADD1F2B2A0308013AAF
:1004200083002B2A5B08DE005708DE0203191E2A10
:10043000DD1F2B2A0308013A83002B2A5C08DE000B
:100440005808DE0203192A2ADD1F2B2A0308013A65
:1004500083002B2A031008008E30F7005508F7029E
:100460005608F9005708F800F917F7080319432A46
:100470000310F908031D3F2AF8080319432AF90C51
:10048000F80CF70B382AD61F4A2AF809F909F80A96
:100490000319F90A080080308318DE06E301E4013D
:1004A0005A08E2005E08E206590803193B2BE100F6
:1004B000F7005D080319442BE1020319E02A031C2D
:1004C0009E2A5E08E700E7175F08E6006008E5007F
:1004D000E4010310E70CE60CE50CE40CE10B682AE0
:1004E000E21F752A6314582B6310611063165C3089
:1004F000840083136D2B6312E21B882A611C932AEC
:10050000E70CE60CE50CE40CF70A0319532B932ACD
:10051000E71B962A0310E40DE50DE60DE70DF70342
:100520000319532B882A6317002B63135A08E20020
:10053000E21F9C2AE7174C2BE7134C2B5D08E100C8
:10054000F7005908E1025A08E700E7175B08E600E0
:100550005C08E500E4010310E70CE60CE50CE40C94
:10056000E10BAA2AE21FB72AE314582BE31061100B
:10057000E3166030840083136D2BE312E21BCA2A5A
:10058000611CD52AE70CE60CE50CE40CF70A03190C
:10059000532BD52AE71BD82A0310E40DE50DE60DF1
:1005A000E70DF7030319532BCA2AE317002BE313B4
:1005B0005E08E200E21FDE2AE7174C2BE7134C2B04
:1005C0005E08E700E7175F08E6006008E500E21F45
:1005D000ED2AE7136315582B6311E40161105C30B9
:1005E000840083136D2BE21B162B5A08E200611C5A
:1005F000002BE70CE60CE50CE40CF70A0319532B6F
:10060000E41F112BE50A031D112BE60A031D112B14
:10061000E70A031D112BE70CE60CE50CF70A03199A
:10062000532B631B952AE31BD72A352B8030E70613
:10063000E71F1E2B582B5E08E2002B2B5A08E20006
:10064000E708031D2B2BE608031D2B2BE508031DD4
:100650002B2BF7014C2BE71B352B0310E40DE50D7D
:10066000E60DE70DF70B2B2B532BE21F392BE7176A
:100670004C2BE7134C2B5D08F7005E08E7005F0882
:10068000E6006008E5004C2B5908F7005A08E7001F
:100690005B08E6005C08E5006708F8006608F900FA
:1006A0006508FA008B2BF701F801F901FA018B2B91
:1006B000E401E509E609E709E409E40A031D662BFC
:1006C000E50A031D662BE60A0319E70A6318742A74
:1006D000E318B62A6319EC2A1B2B0008E507031C54
:1006E000772BE60A031D772BE70A031961148403AD
:1006F0000008E607031C7F2BE70A03196114840333
:100700000008801F803AE70703186114631A7B2AE8
:10071000E31ABD2AF32A08004408C8004308C700AA
:100720004208C6004108C500C90154104808CD0060
:100730004708CC004608CB004508CA004808D80046
:100740004708D7004608D6004508D500DC01DB0184
:10075000DA01D901ED21031CB12B54144B08803A66
:10076000CB004D08D8004C08D7004B08D6004A08EB
:10077000D500DC01DB01DA018E30D900ED21031850
:10078000C32B031DDA2B4D08D8004C08D7004B08AB
:10079000D6004A08D5002C227908DA007808D9005A
:1007A00091207A08D1007908D0007808CF00770826
:1007B000CE00972C4D08D8004C08D7004B08D60027
:1007C0004A08D5008030DC009630DB001830DA00B3
:1007D0009630D900ED21031C8F2C4D08D8004C0811
:1007E000D7004B08D6004A08D500DC01DB01DA014E
:1007F0008E30D90023217A08D8007908D7007808EC
:10080000D6007708D5002C227908D3007808D200CA
:100810004D08D8004C08D7004B08D6004A08D50030
:10082000DC01DB01DA018E30D90023217708D50005
:100830007808D6007908D7007A08D8005308DA007B
:100840005208D900912083145808DC005708DB00B7
:100850005608DA005508D9007A08E0007908DF0068
:100860007808DE007708DD004B22D801D701D601D9
:100870008E30D5007A08DC007908DB007808DA00D1
:100880007708D900AE207A08CD007908CC00780826
:10089000CB007708CA005308DA005208D90091202B
:1008A000D801D701D6018E30D5007A08DC0079084E
:1008B000DB007808DA007708D900AE207A08D1008A
:1008C0007908D0007808CF007708CE004D08D8000E
:1008D0004C08D7004B08D6004A08D5002C227908CE
:1008E000DA007808D900912083105108DC00500804
:1008F000DB004F08DA004E08D9007A08E0007908DA
:10090000DF007808DE007708DD004B227A08D1008E
:100910007908D0007808CF007708CE00972C4D08D2
:10092000D1004C08D0004B08CF004A08CE004D083B
:10093000D8004C08D7004B08D6004A08D5002C2216
:100940007908DA007808D900912083144D08DC007A
:100950004C08DB004B08DA004A08D9007A08E000AE
:100960007908DF007808DE007708DD004B227A087E
:10097000CD007908CC007808CB007708CA00541C59
:10098000C42C4F08803ACF004D08D8004C08D7003F
:100990004B08D6004A08D500DC01DB01DA01D90199
:1009A000ED2103190A2D541CEF2CC908031DEF2C4F
:1009B00083145108DC005008DB004F08DA004E08B1
:1009C000D900E001DF01DE017F30DD004B227A0833
:1009D000D1007908D0007808CF007708CE005418ED
:1009E0000A2D490B0A2D83105108DC005008DB004A
:1009F0004F08DA004E08D900E001DF01DE017F3048
:100A0000DD004B227A08D1007908D0007808CF00A9
:100A10007708CE004808D8004708D7004608D60017
:100A20004508D500DC01DB01DA01D901ED21031D08
:100A30001D2DD101D001CF01CE014E08F7004F0886
:100A4000F8005008F9005108FA008A150A12B22875
:100A5000831603178C170C14000000000318582D80
:100A600083120C087F390313C60003170D08031304
:100A7000C70003170F080313C80046080C1E3E2DBD
:100A80009900470803178D000313480803178F00C8
:100A900083168C170C140000000083120313C50B7F
:100AA000522D552D83160317582D772D83160317B6
:100AB00083120C0D0E0D7F390313C60003170D08AA
:100AC0000313C70003170F080313C80046080C1EC2
:100AD000672D9900470803178D0003134808031773
:100AE0008F008D0A03198F0A0313C50B282D0800E8
:100AF000F701F801F901FA01DA01DB01DC01DD019E
:100B000059085804570456040319B62D2030DE0046
:100B10000310D20DD30DD40DD50DDA0DDB0DDC0D88
:100B2000DD0D59085D02031D9F2D58085C02031D51
:100B30009F2D57085B02031D9F2D56085A02031C68
:100B4000B02D5608DA025708031C570FDB0258086D
:100B5000031C580FDC025908031C590FDD02031453
:100B6000F70DF80DF90DFA0DDE0B882D5A308400C3
:100B7000831308000408CA004908CC000319D92DC2
:100B80004808D8004708D7004608D6004508D500D1
:100B9000DC01DB012030DA008230D900AE207A0897
:100BA000C8007908C7007808C6007708C500CC0BD4
:100BB000C02D4808D5004708D4004608D300450892
:100BC000D2005208B63CD200FA015308D600D3171F
:100BD0000310D30CD40CD50CFA0CF90CF80CF70C50
:100BE000D20BE82DD61FFF2DF709F809F909FA09EC
:100BF000F70A0319F80A0319F90A0319FA0A7A0815
:100C0000C8007908C7007808C6007708C500C81F63
:100C1000162ECA03CA16C509C609C709C809C50AD6
:100C20000319C60A0319C70A0319C80A3B30D100C1
:100C30009A30D000CA30CF00CE010A30CC0049082B
:100C40000319CA0A4808D5004708D4004608D3004B
:100C50004508D2005108D9005008D8004F08D700E5
:100C60004E08D60078250008C500840A0008C60092
:100C7000840A0008C700840A0008C800FD30840701
:100C8000F708031D562E490A4C020319562E4A082E
:100C90000319582E0F394C020319502E03188C2EAD
:100CA000CA1B8C2E4A1B582E2030872E2030CA0596
:100CB000CA1E672ECA124908031DCA037708CA0054
:100CC0002D300C1E612E99004A08F700CA01490810
:100CD0004C02031D762E7708CA002E300C1E6E2E95
:100CE00099004A08F7002030CA0500303030CA1E8B
:100CF000872ECA124908031DCA037708CA002D307F
:100D00000C1E802E99004A08F700CA013030F70700
:100D100077080C1E892E99005108D5005008D40080
:100D20004F08D3004E08D200D901D801D7010A30AC
:100D3000D60078257A08D1007908D0007808CF004D
:0A0D40007708CE00CC0B222E08002D
:10100000840183131F308305193083169900A6309D
:10101000980090308312980083161F149F141F1598
:101020009F1107309C008312A001A101FF30A20094
:1010300083161F109F101F119F111F1383121F175C
:101040009F1783169F1783121F1485309000F93065
:10105000BF000130C000FE30831687008312A2005B
:101060002211220883168700831207110C30970083
:10107000BC01BB01043003178D0000308F008A11C2
:10108000031347288A150830F8001F08C739780469
:101090009F000330F700F70B4B281F151F194E2830
:1010A00083161E088312BD001E08BE003E08DA002B
:1010B0003D08D9008A1191208A157A08D80079084C
:1010C000D7007808D6007708D500DC01DB01203096
:1010D000DA008130D9008A11AE208A157708C10064
:1010E0007808C2007908C3007A08C400D800430811
:1010F000D7004208D6004108D500DC01C030DB0033
:101100007F30DA008830D9008A1123218A157A08C5
:10111000AA007908A9007808A8007708A700D801D4
:10112000D7012030D6008330D5002A08DC002908FA
:10113000DB002808DA002708D9008A11AE208A15BA
:101140007A08AE007908AD007808AC007708AB00EB
:101150002E08C4002D08C3002C08C2002B08C100B3
:101160008A118C2B8A157708C1007808C20079088B
:10117000C3007A08C400153003178D0000308F00BB
:10118000031011300313C5008A1128258A158930F0
:1011900084004408C8004308C7004208C60041084C
:1011A000C5000230C9008A11BA258A1520300C1EEC
:1011B000D72899000D300C1EDB2899000A300C1E30
:1011C000DF2899000030F8001F08C73978049F0015
:1011D0000330F700F70BEA281F151F19ED288316B7
:1011E0001E088312BD001E08BE003E08DA003D083E
:1011F000D9008A1191208A157A08D8007908D70079
:101200007808D6007708D500DC01DB012030DA0051
:101210008130D9008A11AE208A157708C10078087C
:10122000C2007908C3007A08C400D8004308D70078
:101230004208D6004108D500DC01C030DB007F3019
:10124000DA008830D9008A1123218A157A08B20081
:101250007908B1007808B0007708AF003208D800EC
:101260003108D7003008D6002F08D5008830DC00C0
:10127000C630DB000A30DA008330D9008A11AE2094
:101280008A157708C1007808C2007908C3007A0877
:10129000C40083104408DC004308DB004208DA0085
:1012A0004108D900E001DF012030DE008230DD009E
:1012B0008A114B228A157A08B6007908B500780899
:1012C000B4007708B300223003178D0000308F0080
:1012D000031012300313C5008A1128258A1589309E
:1012E00084003608C8003508C7003408C600330833
:1012F000C5000230C9008A11BA258A1520300C1E9B
:101300007F2999000D300C1E832999000A300C1E8C
:10131000872999003C08F9003B08F800F90CF80C03
:10132000F90CF80CF90C78089500F90C790C3039A7
:10133000F7001708CF3977049700831686108312B9
:1013400086140330F700F70BA32983168610831247
:101350008610831606148312061CA9298F018E019C
:101360008316061483120618B0290F08FA000E0817
:10137000F7000F087A02031DB5297708D9007A080B
:10138000DA008A1191208A157A08BA007908B90022
:101390007808B8007708B7003A08D8003908D700AD
:1013A0003808D6003708D500DC01DB01DA018030CF
:1013B000D9008A1123218A157708C1007808C20054
:1013C0007908C3007A08C400D8004308D70042084F
:1013D000D6004108D5002830DC007E30DB000C3020
:1013E000DA007A30D9008A11AE208A157A08A60070
:1013F0007908A5007808A4007708A3003030031707
:101400008D0000308F0003100F300313C5008A11C8
:1014100028258A15893084002608C8002508C700B9
:101420002408C6002308C5000230C9008A11BA2565
:101430008A15383003178D0000308F0003140530F3
:101440000313C5008A1128258A153C3003178D0027
:1014500000308F0003100C300313C5008A112825BB
:101460008A15893084003A08C8003908C70038084E
:10147000C6003708C5000230C9008A11BA258A158E
:10148000433003178D0000308F0003100630031324
:10149000C5008A1128258A150330F700F70B4E2A5C
:1014A0002608D8002508D7002408D6002308D50030
:1014B000DC01DB016030DA008030D9008A11ED21D7
:1014C0008A150318652A031D682ABC01BB01A32ADB
:1014D000D8018030D7002530D6008730D5002608C7
:1014E000DC002508DB002408DA002308D9008A1173
:1014F000ED218A1503187E2A031D832A0330BC00C0
:10150000E130BB00A32A2608D8002508D70024080C
:10151000D6002308D500DC01DB014030DA00803042
:10152000D9008A11AE208A157A08D8007908D70028
:101530007808D6007708D5008A112C228A157908F8
:10154000BC007808BB000330F700F70BA52A3A2847
:02155000630036
:02400E00713F00
:00000001FF
;PIC16F877A
;CRC=53E5  CREATED="17-jun.-21 20:19"
