:1000000008308A0000280000AD16AD16AD16AD16FA
:10001000AD16AD16AD16AD16AD16AD16AD16AD16C8
:10002000AD16AD16AD16AD060A005B2AE536F03208
:10003000F230F43AF2305D102D1FA0123217323335
:10004000A0060A005B286F39E3346537F4372024B3
:10005000D32EA0163E1025192E1966100D0500018D
:100060005B22E939F430EE31E9305D102D1FA0122A
:100070006610E3360D0500015B2AE9326D38EF2E7C
:10008000A0163E102533A039E5330D050000831678
:1000900003178C170C140000000083120C087F3922
:1000A00003198D280313C10003170D080313C200A1
:1000B00003170F080313C30041080C1E5D289900A5
:1000C000420803178D000313430803178F0083169C
:1000D0008C170C140000000083120C0D0E0D7F39DC
:1000E00003198D280313C10003170D080313C20061
:1000F00003170F080313C30041080C1E7D28990045
:10010000420803178D000313430803178F008D0A5D
:1001100003198F0A03134728031703138A150A12BA
:10012000422842308400831300080319A5280130B7
:10013000F800F701F70B9A28F80B99284A30F700D6
:10014000F70BA028A328800B972808008E30F70013
:100150005A08F8005908F900FA01F808031DBA28EE
:100160007908F800F9010830F702F808031DBA28E9
:10017000F701C2280310F81BC128F90DF80DF70389
:10018000BA28F8130800550803193329DD00590867
:1001900003193329DD070318D4287F30DD02031C3F
:1001A000332903193329D8288130DD07031833296F
:1001B0005D08F700F801F901FA015608E100E117BE
:1001C0005708E0005808DF001830DD00DE015F1C32
:1001D00001295C08FA07031CF328F90A031DF32818
:1001E000F80A0319DE175B08F907031CFA28F80A56
:1001F0000319DE175A08D700D7175708F80703184E
:10020000DE17DE0DF80CF90CFA0CE10CE00CDF0C3B
:100210000310DD0BE6280130F70703183329F81B1C
:100220001829E10DFA0DF90DF80DF703031933291B
:10023000E11F2929FA0A031D2929F90A031D292981
:10024000F80A031D2929F80CF90CFA0CF70A03190E
:1002500033295608DE005A08DE06DE1F3129F8175A
:100260003729F8133729F701F801F901FA010800D5
:1002700055080319FD29E10059080319FD29E10278
:10028000031C47297F30E1070318FD294D298130E0
:10029000E102031CFD290319FD296108F700F8019B
:1002A000F901FA01E0015608DF00DF175708DE0008
:1002B0005808DD001930E1005C08DD0203187029E0
:1002C0000130DE0203187029DF0203187029E002F2
:1002D00003187029E00ADF0ADE0A5C08DD07A2299C
:1002E0005B08DE0203188B290130DF0203188B291B
:1002F000E00203188B29E00ADF0A5B08DE075C08CE
:10030000DD07031CA229DE0A031DA229DF0A031D43
:10031000A229E00AA2295A088038DF020318A1297D
:100320000130E0020318A129E00A5A088038DF07EB
:100330005B08DE07031C7F29DF0A031D7F29E00A13
:100340007F297A14E10BA529B0290310DD0DDE0DFC
:10035000DF0DE00D0310FA0DF90DF80DE20D5C292B
:10036000621CB8290310F80CF90CFA0CE20CBB293A
:10037000F7030319FD29E21BE4290310DD0DDE0D4F
:10038000DF0DE00D5C08DD020318D0290130DE022C
:100390000318D029DF020318D029E002031CF32937
:1003A0005B08DE020318DB290130DF020318DB29BA
:1003B000E002031CF3295A088038DF020318E429FD
:1003C0000130E002031CF329FA0A031DF329F90A9C
:1003D000031DF329F80A031DF329F70A0319FD2960
:1003E000F80CF90CFA0C5608E1005A08E106E11F76
:1003F000FB29F817012AF813012AF701F801F9017E
:10040000FA0108005608DD005A08DD06DD1F0D2A36
:1004100003110310D61B0314402A5608DD005908A7
:10042000DE005508DE0203191B2ADD1F402A0308DF
:10043000013A8300402A5A08DE005608DE020319FA
:10044000272ADD1F402A0308013A8300402A5B085F
:10045000DE005708DE020319332ADD1F402A030895
:10046000013A8300402A5C08DE005808DE020319C6
:100470003F2ADD1F402A0308013A8300402A031067
:1004800008008E30F7005508F7025608F9005708A3
:10049000F800F917F7080319582A0310F908031D83
:1004A000542AF8080319582AF90CF80CF70B4D2AAE
:1004B000D61F5F2AF809F909F80A0319F90A080092
:1004C00080308318DE06E301E4015A08E2005E088A
:1004D000E20659080319502BE100F7005D080319E3
:1004E000592BE1020319F52A031CB32A5E08E70021
:1004F000E7175F08E6006008E500E4010310E70C79
:10050000E60CE50CE40CE10B7D2AE21F8A2A631459
:100510006D2B6310611063165C3084008313822B93
:100520006312E21B9D2A611CA82AE70CE60CE50C6D
:10053000E40CF70A0319682BA82AE71BAB2A03105F
:10054000E40DE50DE60DE70DF7030319682B9D2A71
:100550006317152B63135A08E200E21FB12AE7174D
:10056000612BE713612B5D08E100F7005908E102F8
:100570005A08E700E7175B08E6005C08E500E401BD
:100580000310E70CE60CE50CE40CE10BBF2AE21FBC
:10059000CC2AE3146D2BE3106110E3166030840065
:1005A0008313822BE312E21BDF2A611CEA2AE70C89
:1005B000E60CE50CE40CF70A0319682BEA2AE71BA2
:1005C000ED2A0310E40DE50DE60DE70DF703031921
:1005D000682BDF2AE317152BE3135E08E200E21F06
:1005E000F32AE717612BE713612B5E08E700E71793
:1005F0005F08E6006008E500E21F022BE7136315C1
:100600006D2B6311E40161105C3084008313822B35
:10061000E21B2B2B5A08E200611C152BE70CE60CA1
:10062000E50CE40CF70A0319682BE41F262BE50AF6
:10063000031D262BE60A031D262BE70A031D262B86
:10064000E70CE60CE50CF70A0319682B631BAA2AD2
:10065000E31BEC2A4A2B8030E706E71F332B6D2B78
:100660005E08E200402B5A08E200E708031D402B19
:10067000E608031D402BE508031D402BF701612B05
:10068000E71B4A2B0310E40DE50DE60DE70DF70B14
:10069000402B682BE21F4E2BE717612BE713612BD2
:1006A0005D08F7005E08E7005F08E6006008E50007
:1006B000612B5908F7005A08E7005B08E6005C0860
:1006C000E5006708F8006608F9006508FA00A02B45
:1006D000F701F801F901FA01A02BE401E509E609A7
:1006E000E709E409E40A031D7B2BE50A031D7B2BC4
:1006F000E60A0319E70A6318892AE318CB2A631963
:10070000012B302B0008E507031C8C2BE60A031D88
:100710008C2BE70A0319611484030008E607031C05
:10072000942BE70A0319611484030008801F803AA0
:10073000E70703186114631A902AE31AD22A082BD8
:1007400008004408C8004308C7004208C600410822
:10075000C500C90154104808CD004708CC00460820
:10076000CB004508CA004808D8004708D70046080B
:10077000D6004508D500DC01DB01DA01D9010222EF
:10078000031CC62B54144B08803ACB004D08D800EC
:100790004C08D7004B08D6004A08D500DC01DB0125
:1007A000DA018E30D90002220318D82B031DEF2B5B
:1007B0004D08D8004C08D7004B08D6004A08D50091
:1007C00041227908DA007808D900A6207A08D100F9
:1007D0007908D0007808CF007708CE00AC2C4D08FF
:1007E000D8004C08D7004B08D6004A08D500803006
:1007F000DC009630DB001830DA009630D900022297
:10080000031CA42C4D08D8004C08D7004B08D60078
:100810004A08D500DC01DB01DA018E30D90038212D
:100820007A08D8007908D7007808D6007708D5006C
:1008300041227908D3007808D2004D08D8004C082E
:10084000D7004B08D6004A08D500DC01DB01DA01ED
:100850008E30D90038217708D5007808D60079087D
:10086000D7007A08D8005308DA005208D900A62029
:1008700083145808DC005708DB005608DA005508D6
:10088000D9007A08E0007908DF007808DE007708F0
:10089000DD006022D801D701D6018E30D5007A085C
:1008A000DC007908DB007808DA007708D900C3207B
:1008B0007A08CD007908CC007808CB007708CA0008
:1008C0005308DA005208D900A620D801D701D60172
:1008D0008E30D5007A08DC007908DB007808DA0071
:1008E0007708D900C3207A08D1007908D0007808A9
:1008F000CF007708CE004D08D8004C08D7004B0831
:10090000D6004A08D50041227908DA007808D900D3
:10091000A62083105108DC005008DB004F08DA00E5
:100920004E08D9007A08E0007908DF007808DE0078
:100930007708DD0060227A08D1007908D0007808B5
:10094000CF007708CE00AC2C4D08D1004C08D00069
:100950004B08CF004A08CE004D08D8004C08D700FD
:100960004B08D6004A08D50041227908DA007808F9
:10097000D900A62083144D08DC004C08DB004B088E
:10098000DA004A08D9007A08E0007908DF00780820
:10099000DE007708DD0060227A08CD007908CC00FF
:1009A0007808CB007708CA00541CD92C4F08803A2D
:1009B000CF004D08D8004C08D7004B08D6004A0895
:1009C000D500DC01DB01DA01D901022203191F2D58
:1009D000541C042DC908031D042D83145108DC0088
:1009E0005008DB004F08DA004E08D900E001DF01B3
:1009F000DE017F30DD0060227A08D1007908D00066
:100A00007808CF007708CE0054181F2D490B1F2DF2
:100A100083105108DC005008DB004F08DA004E0854
:100A2000D900E001DF01DE017F30DD0060227A08BD
:100A3000D1007908D0007808CF007708CE004808A8
:100A4000D8004708D7004608D6004508D500DC0185
:100A5000DB01DA01D9010222031D322DD101D001BF
:100A6000CF01CE014E08F7004F08F8005008F900FA
:100A70005108FA008A150A12B328831603178C1737
:100A80000C140000000003186D2D83120C087F3930
:100A90000313C60003170D080313C70003170F083D
:100AA0000313C80046080C1E532D9900470803176E
:100AB0008D000313480803178F0083168C170C143E
:100AC0000000000083120313C50B672D6A2D8316E7
:100AD00003176D2D8C2D8316031783120C0D0E0D2D
:100AE0007F390313C60003170D080313C70003174C
:100AF0000F080313C80046080C1E7C2D99004708F8
:100B000003178D000313480803178F008D0A03197C
:100B10008F0A0313C50B3D2D0800F701F801F901F9
:100B2000FA01DA01DB01DC01DD0159085804570440
:100B300056040319CB2D2030DE000310D20DD30D47
:100B4000D40DD50DDA0DDB0DDC0DDD0D59085D0280
:100B5000031DB42D58085C02031DB42D57085B0219
:100B6000031DB42D56085A02031CC52D5608DA027F
:100B70005708031C570FDB025808031C580FDC02F0
:100B80005908031C590FDD020314F70DF80DF90D78
:100B9000FA0DDE0B9D2D5A308400831308000408E3
:100BA000CA004908CC000319EE2D4808D8004708B0
:100BB000D7004608D6004508D500DC01DB0120300F
:100BC000DA008230D900C3207A08C8007908C7004B
:100BD0007808C6007708C500CC0BD52D4808D5008D
:100BE0004708D4004608D3004508D2005208B63C56
:100BF000D200FA015308D600D3170310D30CD40C3B
:100C0000D50CFA0CF90CF80CF70CD20BFD2DD61FF5
:100C1000142EF709F809F909FA09F70A0319F80A6D
:100C20000319F90A0319FA0A7A08C8007908C700F3
:100C30007808C6007708C500C81F2B2ECA03CA163D
:100C4000C509C609C709C809C50A0319C60A03198F
:100C5000C70A0319C80A3B30D1009A30D000CA3005
:100C6000CF00CE010A30CC0049080319CA0A48084F
:100C7000D5004708D4004608D3004508D2005108E3
:100C8000D9005008D8004F08D7004E08D6008D254F
:100C90000008C500840A0008C600840A0008C700CE
:100CA000840A0008C800FD308407F708031D6B2E76
:100CB000490A4C0203196B2E4A0803196D2E0F398D
:100CC0004C020319652E0318A12ECA1BA12E4A1B24
:100CD0006D2E20309C2E2030CA05CA1E7C2ECA12D2
:100CE0004908031DCA037708CA002D300C1E762E52
:100CF00099004A08F700CA0149084C02031D8B2ECF
:100D00007708CA002E300C1E832E99004A08F7007F
:100D10002030CA0500303030CA1E9C2ECA12490845
:100D2000031DCA037708CA002D300C1E952E9900AA
:100D30004A08F700CA013030F70777080C1E9E2ECC
:100D400099005108D5005008D4004F08D3004E0830
:100D5000D200D901D801D7010A30D6008D257A08F2
:100D6000D1007908D0007808CF007708CE00CC0BEE
:040D7000372E080012
:10100000840183131F308305193083169900A6309D
:10101000980090308312980083161F149F141F1598
:101020009F1107309C008312A001A101FF30A20094
:1010300083161F109F101F119F111F1383121F175C
:101040009F1783169F1783121F1485309000F93065
:10105000BF000130C000FE30831687008312A2005B
:101060002211220883168700831207110C30970083
:10107000BC01BB01043003178D0000308F008A11C2
:10108000031347288A150830F8001F08C739780469
:101090009F006430C2008A1191208A151F151F1904
:1010A0004F2883161E088312BD001E08BE003E088E
:1010B000DA003D08D9008A11A6208A157A08D800DE
:1010C0007908D7007808D6007708D500DC01DB0165
:1010D0002030DA008130D9008A11C3208A157708C0
:1010E000C1007808C2007908C3007A08C400D8009B
:1010F0004308D7004208D6004108D500DC01C030C3
:10110000DB007F30DA008830D9008A1138218A1557
:101110007A08AA007908A9007808A8007708A7002B
:10112000D801D7012030D6008330D5002A08DC0052
:101130002908DB002808DA002708D9008A11C32013
:101140008A157A08AE007908AD007808AC007708F7
:10115000AB002E08C4002D08C3002C08C2002B08C9
:10116000C1008A11A12B8A157708C1007808C20036
:101170007908C3007A08C400153003178D000030C9
:101180008F00031011300313C5008A113D258A1505
:10119000893084004408C8004308C7004208C600DC
:1011A0004108C5000230C9008A11CF258A152030B8
:1011B0000C1ED82899000D300C1EDC2899000A302E
:1011C0000C1EE02899000030F8001F08C739780489
:1011D0009F006430C2008A1191208A151F151F19C3
:1011E000EF2883161E088312BD001E08BE003E08AD
:1011F000DA003D08D9008A11A6208A157A08D8009D
:101200007908D7007808D6007708D500DC01DB0123
:101210002030DA008130D9008A11C3208A1577087E
:10122000C1007808C2007908C3007A08C400D80059
:101230004308D7004208D6004108D500DC01C03081
:10124000DB007F30DA008830D9008A1138218A1516
:101250007A08B2007908B1007808B0007708AF00CA
:101260003208D8003108D7003008D6002F08D50042
:101270008830DC00C630DB000A30DA008330D90069
:101280008A11C3208A157708C1007808C20079083E
:10129000C3007A08C40083104408DC004308DB0064
:1012A0004208DA004108D900E001DF012030DE0009
:1012B0008230DD008A1160228A157A08B60079082A
:1012C000B5007808B4007708B300223003178D000A
:1012D00000308F00031012300313C5008A113D2522
:1012E0008A15893084003608C8003508C7003408DC
:1012F000C6003308C5000230C9008A11CF258A15FF
:1013000020300C1E812999000D300C1E8529990072
:101310000A300C1E892999003C08F9003B08F800A6
:10132000F90CF80CF90CF80CF90C78089500F90C8C
:10133000790C3039F7001708CF39770497008316F6
:101340008610831286140330F700F70BA529831645
:10135000861083128610831606148312061CAB298E
:101360008F018E018316061483120618B2290F0806
:10137000FA000E08F7000F087A02031DB729770854
:10138000D9007A08DA008A11A6208A157A08BA00EC
:101390007908B9007808B8007708B7003A08D8008B
:1013A0003908D7003808D6003708D500DC01DB0142
:1013B000DA018030D9008A1138218A157708C100F6
:1013C0007808C2007908C3007A08C400D80043082E
:1013D000D7004208D6004108D5002830DC007E3016
:1013E000DB000C30DA007A30D9008A11C3208A156C
:1013F0007A08A6007908A5007808A4007708A30059
:10140000303003178D0000308F0003100F300313AE
:10141000C5008A113D258A15893084002608C80038
:101420002508C7002408C6002308C5000230C900EB
:101430008A11CF258A15383003178D0000308F00B0
:10144000031405300313C5008A113D258A153C306D
:1014500003178D0000308F0003100C300313C500FC
:101460008A113D258A15893084003A08C800390858
:10147000C7003808C6003708C5000230C9008A1105
:10148000CF258A15433003178D0000308F000310DD
:1014900006300313C5008A113D258A150230C100AC
:1014A000FA30C2008A1191208A15C10B502A2608F1
:1014B000D8002508D7002408D6002308D500DC0171
:1014C000DB016030DA008030D9008A1102228A15EF
:1014D00003186C2A031D6F2ABC01BB01AA2AD8017C
:1014E0008030D7002530D6008730D5002608DC00B4
:1014F0002508DB002408DA002308D9008A1102221B
:101500008A150318852A031D8A2A0330BC00E1309E
:10151000BB00AA2A2608D8002508D7002408D60030
:101520002308D500DC01DB014030DA008030D9002F
:101530008A11C3208A157A08D8007908D70078085C
:10154000D6007708D5008A1141228A157908BC0097
:101550007808BB00C830C2008A1191208A153A2849
:02156000630026
:02400E00713F00
:00000001FF
;PIC16F877A
;CRC=8B90  CREATED="18-jun.-21 20:32"
