:1000000008308A0000280000AD16AD16AD16AD16FA
:10001000AD16AD16AD16AD16AD16AD16AD16AD16C8
:10002000AD16AD16AD16AD060A005B2AE536F03208
:10003000F230F43AF2305D102D1FA0123217323335
:10004000A0060A005B286F39E3346537F4372024B3
:10005000D32EA0163E1025192E1966100D0500018D
:100060005B22E939F430EE31E9305D102D1FA0122A
:100070006610E3360D0500015B2AE9326D38EF2E7C
:10008000A0163E102533A039E5330D0500000B08FE
:10009000C1008B13831603178C170C14000000008B
:1000A00083120313C11B8B1703170C087F39031925
:1000B0009D280313C10003170D080313C200031783
:1000C0000F080313C30041080C1E6428990042085E
:1000D00003178D000313430803178F0003130B0846
:1000E000C4008B13831603178C170C140000000038
:1000F00083120313C41B8B1703170C0D0E0D7F39CE
:1001000003199D280313C10003170D080313C20030
:1001100003170F080313C30041080C1E8D28990014
:10012000420803178D000313430803178F008D0A3D
:1001300003198F0A03134728031703138A150A129A
:10014000422841308400831300080319B528013088
:10015000F800F701F70BAA28F80BA9284A30F70096
:10016000F70BB028B328800BA72808008E30F700C3
:100170005A08F8005908F900FA01F808031DCA28BE
:100180007908F800F9010830F702F808031DCA28B9
:10019000F701D2280310F81BD128F90DF80DF70349
:1001A000CA28F8130800550803194329DD00590827
:1001B00003194329DD070318E4287F30DD02031CFF
:1001C000432903194329E8288130DD07031843290F
:1001D0005D08F700F801F901FA015608E100E1179E
:1001E0005708E0005808DF001830DD00DE015F1C12
:1001F00011295C08FA07031C0329F90A031D0329C6
:10020000F80A0319DE175B08F907031C0A29F80A24
:100210000319DE175A08D700D7175708F80703182D
:10022000DE17DE0DF80CF90CFA0CE10CE00CDF0C1B
:100230000310DD0BF6280130F70703184329F81BDC
:100240002829E10DFA0DF90DF80DF70303194329DB
:10025000E11F3929FA0A031D3929F90A031D392931
:10026000F80A031D3929F80CF90CFA0CF70A0319DE
:1002700043295608DE005A08DE06DE1F4129F8171A
:100280004729F8134729F701F801F901FA01080095
:10029000450803190D2AD100490803190D2AD10276
:1002A000031C57297F30D10703180D2A5D2981309F
:1002B000D102031C0D2A03190D2A5108F700F80179
:1002C000F901FA01D0014608CF00CF174708CE0048
:1002D0004808CD001930D1004C08CD020318802900
:1002E0000130CE0203188029CF0203188029D002E2
:1002F00003188029D00ACF0ACE0A4C08CD07B229AC
:100300004B08CE0203189B290130CF0203189B290A
:10031000D00203189B29D00ACF0A4B08CE074C08FD
:10032000CD07031CB229CE0A031DB229CF0A031D33
:10033000B229D00AB2294A088038CF020318B1295D
:100340000130D0020318B129D00A4A088038CF07FB
:100350004B08CE07031C8F29CF0A031D8F29D00A13
:100360008F297A14D10BB529C0290310CD0DCE0DDC
:10037000CF0DD00D0310FA0DF90DF80DD20D6C292B
:10038000521CC8290310F80CF90CFA0CD20CCB291A
:10039000F70303190D2AD21BF4290310CD0DCE0D3E
:1003A000CF0DD00D4C08CD020318E0290130CE024C
:1003B0000318E029CF020318E029D002031C032A06
:1003C0004B08CE020318EB290130CF020318EB29AA
:1003D000D002031C032A4A088038CF020318F429EC
:1003E0000130D002031C032AFA0A031D032AF90A6A
:1003F000031D032AF80A031D032AF70A03190D2A0D
:10040000F80CF90CFA0C4608D1004A08D106D11FA5
:100410000B2AF817112AF813112AF701F801F9012C
:10042000FA0108005608DD005A08DD06DD1F1D2A06
:1004300003110310D61B0314502A5608DD00590877
:10044000DE005508DE0203192B2ADD1F502A03089F
:10045000013A8300502A5A08DE005608DE020319CA
:10046000372ADD1F502A0308013A8300502A5B080F
:10047000DE005708DE020319432ADD1F502A030855
:10048000013A8300502A5C08DE005808DE02031996
:100490004F2ADD1F502A0308013A8300502A031017
:1004A00008008E30F7005508F7025608F900570883
:1004B000F800F917F7080319682A0310F908031D53
:1004C000642AF8080319682AF90CF80CF70B5D2A5E
:1004D000D61F6F2AF809F909F80A0319F90A080062
:1004E00080308318DE06E301E4015A08E2005E086A
:1004F000E20659080319602BE100F7005D080319B3
:10050000692BE1020319052B031CC32A5E08E700CF
:10051000E7175F08E6006008E500E4010310E70C58
:10052000E60CE50CE40CE10B8D2AE21F9A2A631419
:100530007D2B6310611063165C3084008313922B53
:100540006312E21BAD2A611CB82AE70CE60CE50C2D
:10055000E40CF70A0319782BB82AE71BBB2A03100F
:10056000E40DE50DE60DE70DF7030319782BAD2A31
:100570006317252B63135A08E200E21FC12AE7170D
:10058000712BE713712B5D08E100F7005908E102B8
:100590005A08E700E7175B08E6005C08E500E4019D
:1005A0000310E70CE60CE50CE40CE10BCF2AE21F8C
:1005B000DC2AE3147D2BE3106110E3166030840025
:1005C0008313922BE312E21BEF2A611CFA2AE70C39
:1005D000E60CE50CE40CF70A0319782BFA2AE71B62
:1005E000FD2A0310E40DE50DE60DE70DF7030319F1
:1005F000782BEF2AE317252BE3135E08E200E21FB6
:10060000032BE717712BE713712B5E08E700E71741
:100610005F08E6006008E500E21F122BE713631590
:100620007D2B6311E40161105C3084008313922BF5
:10063000E21B3B2B5A08E200611C252BE70CE60C61
:10064000E50CE40CF70A0319782BE41F362BE50AB6
:10065000031D362BE60A031D362BE70A031D362B36
:10066000E70CE60CE50CF70A0319782B631BBA2A92
:10067000E31BFC2A5A2B8030E706E71F432B7D2B18
:100680005E08E200502B5A08E200E708031D502BD9
:10069000E608031D502BE508031D502BF701712BB5
:1006A000E71B5A2B0310E40DE50DE60DE70DF70BE4
:1006B000502B782BE21F5E2BE717712BE713712B62
:1006C0005D08F7005E08E7005F08E6006008E500E7
:1006D000712B5908F7005A08E7005B08E6005C0830
:1006E000E5006708F8006608F9006508FA00B02B15
:1006F000F701F801F901FA01B02BE401E509E60977
:10070000E709E409E40A031D8B2BE50A031D8B2B83
:10071000E60A0319E70A6318992AE318DB2A631922
:10072000112B402B0008E507031C9C2BE60A031D38
:100730009C2BE70A0319611484030008E607031CD5
:10074000A42BE70A0319611484030008801F803A70
:10075000E70703186114631AA02AE31AE22A182B88
:1007600008004408C8004308C7004208C600410802
:10077000C500C90154104808CD004708CC00460800
:10078000CB004508CA004808D8004708D7004608EB
:10079000D6004508D500DC01DB01DA01D9011222BF
:1007A000031CD62B54144B08803ACB004D08D800BC
:1007B0004C08D7004B08D6004A08D500DC01DB0105
:1007C000DA018E30D90012220318E82B031DFF2B0B
:1007D0004D08D8004C08D7004B08D6004A08D50071
:1007E00051227908DA007808D900B6207A08D100B9
:1007F0007908D0007808CF007708CE00BC2C4D08CF
:10080000D8004C08D7004B08D6004A08D5008030E5
:10081000DC009630DB001830DA009630D900122266
:10082000031CB42C4D08D8004C08D7004B08D60048
:100830004A08D500DC01DB01DA017030D900D32091
:100840007A08D8007908D7007808D6007708D5004C
:1008500051227908D3007808D2004D08D8004C08FE
:10086000D7004B08D6004A08D500DC01DB01DA01CD
:100870007030D900D3207A08D8007908D7007808DA
:10088000D6007708D5005308DA005208D900B62000
:1008900083145808DC005708DB005608DA005508B6
:1008A000D9007A08E0007908DF007808DE007708D0
:1008B000DD007022D801D701D6018E30D5007A082C
:1008C000DC007908DB007808DA007708D900D3204B
:1008D0007A08CD007908CC007808CB007708CA00E8
:1008E0005308DA005208D900B620D801D701D60142
:1008F0008E30D5007A08DC007908DB007808DA0051
:100900007708D900D3207A08D1007908D000780878
:10091000CF007708CE004D08D8004C08D7004B0810
:10092000D6004A08D50051227908DA007808D900A3
:10093000B62083105108DC005008DB004F08DA00B5
:100940004E08D9007A08E0007908DF007808DE0058
:100950007708DD0070227A08D1007908D000780885
:10096000CF007708CE00BC2C4D08D1004C08D00039
:100970004B08CF004A08CE004D08D8004C08D700DD
:100980004B08D6004A08D50051227908DA007808C9
:10099000D900B62083144D08DC004C08DB004B085E
:1009A000DA004A08D9007A08E0007908DF00780800
:1009B000DE007708DD0070227A08CD007908CC00CF
:1009C0007808CB007708CA00541CE92C4F08803AFD
:1009D000CF004D08D8004C08D7004B08D6004A0875
:1009E000D500DC01DB01DA01D901122203192F2D18
:1009F000541C142DC908031D142D83145108DC0048
:100A00005008DB004F08DA004E08D900E001DF0192
:100A1000DE017F30DD0070227A08D1007908D00035
:100A20007808CF007708CE0054182F2D490B2F2DB2
:100A300083105108DC005008DB004F08DA004E0834
:100A4000D900E001DF01DE017F30DD0070227A088D
:100A5000D1007908D0007808CF007708CE00480888
:100A6000D8004708D7004608D6004508D500DC0165
:100A7000DB01DA01D9011222031D422DD101D0017F
:100A8000CF01CE014E08F7004F08F8005008F900DA
:100A90005108FA008A150A12B4280B08C6008B13F5
:100AA000831603178C170C14000000008312031325
:100AB000C61B8B170318852D03170C087F390313EA
:100AC000C60003170D080313C70003170F0803130D
:100AD000C80046080C1E6A2D9900470803178D00B0
:100AE0000313480803178F0003130B08C9008B1367
:100AF000831603178C170C140000000083120313D5
:100B0000C91B8B17C50B852DA52D03170C0D0E0DBD
:100B10007F390313C60003170D080313C70003171B
:100B20000F080313C80046080C1E942D99004708AF
:100B300003178D000313480803178F008D0A03194C
:100B40008F0A03100313C50B4D2D08008318AB2D1E
:100B50005A3084008313F701F801F901FA01DA0130
:100B6000DB01DC01DD015908580457045604031960
:100B7000E92D2030DE000310D20DD30DD40DD50D9C
:100B8000DA0DDB0DDC0DDD0D59085D02031DD22DE4
:100B900058085C02031DD22D57085B02031DD22D9D
:100BA00056085A02031CE32D5608DA025708031CA4
:100BB000570FDB025808031C580FDC025908031CAE
:100BC000590FDD020314F70DF80DF90DFA0DDE0BC8
:100BD000BB2D5A088000840A5B088000840A5C08E8
:100BE0008000840A5D08800008000408CA004908E3
:100BF000CC000319142E4808D8004708D70046082F
:100C0000D6004508D500DC01DB012030DA00823057
:100C1000D900D3207A08C8007908C7007808C60030
:100C20007708C500CC0BFB2D4808D5004708D40039
:100C30004608D3004508D2005208B63CD200FA015B
:100C40005308D600D3170310D30CD40CD50CFA0CD0
:100C5000F90CF80CF70CD20B232ED61F3A2EF709FD
:100C6000F809F909FA09F70A0319F80A0319F90A40
:100C70000319FA0A7A08C8007908C7007808C6007C
:100C80007708C500C81F512ECA03CA16C509C60970
:100C9000C709C809C50A0319C60A0319C70A0319EF
:100CA000C80A3B30D1009A30D000CA30CF00CE0104
:100CB0000A30CC0049080319CA0A8314453084005D
:100CC00083134808D5004708D4004608D3004508D8
:100CD000D2005108D9005008D8004F08D7004E085C
:100CE000D600A6257808F708031D892E490A4C026C
:100CF0000319892E4A0803198B2E0F394C02031948
:100D0000832E0318BF2ECA1BBF2E4A1B8B2E2030EA
:100D1000BA2E2030CA05CA1E9A2ECA124908031DCF
:100D2000CA037708CA002D300C1E942E99004A0879
:100D3000F700CA0149084C02031DA92E7708CA0012
:100D40002E300C1EA12E99004A08F7002030CA054B
:100D500000303030CA1EBA2ECA124908031DCA0319
:100D60007708CA002D300C1EB32E99004A08F700F0
:100D7000CA013030F70777080C1EBC2E990083108B
:100D80005108D5005008D4004F08D3004E08D200B7
:100D9000D901D801D7010A30D600A6257A08D1009A
:100DA0007908D0007808CF007708CE00CC0B5D2EF4
:020DB000080039
:1010000003081F398300193083169900A630980011
:10101000903083129800FF30A20083161F149F1493
:101020001F159F1107309C0083138312A001A1019B
:1010300083161F109F101F119F111F1383121F175C
:101040009F1783169F1783121F1485309000F93065
:10105000BF000130C000FE30831687008312A2005B
:101060002211220883168700831207110C30970083
:10107000BC01BB01043003178D0000308F008A11C2
:10108000031347288A150830F8001F08C739780469
:101090009F000130C1008A11A1208A151F151F1958
:1010A0004F2883161E088312BD001E08BE003E088E
:1010B000DA003D08D9008A11B6208A157A08D800CE
:1010C0007908D7007808D6007708D500DC01DB0165
:1010D0002030DA008130D9008A11D3208A157A08AD
:1010E000C4007908C3007808C2007708C10044082A
:1010F000C8004308C7004208C6004108C500CC012B
:10110000C030CB007F30CA008830C9008A11482126
:101110008A157A08AA007908A9007808A800770833
:10112000A700D801D7012030D6008330D5002A0887
:10113000DC002908DB002808DA002708D9008A111A
:10114000D3208A157A08AE007908AD007808AC0083
:101150007708AB002E08C4002D08C3002C08C2007D
:101160002B08C1008A11B12B8A157A08C4007908AE
:10117000C3007808C2007708C100153003178D003E
:1011800000308F00031011300313C5008A114D2564
:101190008A15893084004408C8004308C700420803
:1011A000C6004108C5000230C9008A11F5258A151C
:1011B00020300C1ED92899000D300C1EDD28990016
:1011C0000A300C1EE12899000030F8001F08C739CA
:1011D00078049F000130C1008A11A1208A151F15D3
:1011E0001F19F02883161E088312BD001E08BE00BA
:1011F0003E08DA003D08D9008A11B6208A157A081F
:10120000D8007908D7007808D6007708D500DC0127
:10121000DB012030DA008130D9008A11D3208A1511
:101220007A08C4007908C3007808C2007708C100B2
:101230004408C8004308C7004208C6004108C5006A
:10124000CC01C030CB007F30CA008830C9008A1181
:1012500048218A157A08B2007908B1007808B000F0
:101260007708AF003208D8003108D7003008D60020
:101270002F08D5008830DC00C630DB000A30DA00E9
:101280008330D9008A11D3208A157A08C4007908DE
:10129000C3007808C2007708C10083104408DC004E
:1012A0004308DB004208DA004108D900E001DF0111
:1012B0002030DE008230DD008A1170228A157A0823
:1012C000B6007908B5007808B4007708B30022307A
:1012D00003178D0000308F00031012300313C50078
:1012E0008A114D258A15893084003608C8003508D2
:1012F000C7003408C6003308C5000230C9008A118F
:10130000F5258A1520300C1E832999000D300C1EFE
:10131000872999000A300C1E8B2999003C08F90096
:101320003B08F800F90CF80CF90CF80CF90C7808EB
:101330009500F90C790C3039F7001708CF3977048C
:10134000970083168610831286140230F700F70B7D
:10135000A729AA29000083168610831286108316F7
:1013600006148312061CAF298E018F018E0183168D
:10137000061483120618B7290F08FA000E08F700A2
:101380000F087A02031DBC297708D9007A08DA0011
:101390008A11B6208A157A08BA007908B900780847
:1013A000B8007708B7003A08C8003908C7003808FD
:1013B000C6003708C500CC01CB01CA018030C90086
:1013C0008A1148218A157A08C4007908C300780870
:1013D000C2007708C1004408D8004308D70042087B
:1013E000D6004108D5002830DC007E30DB000C3010
:1013F000DA007A30D9008A11D3208A157A08A6003B
:101400007908A5007808A4007708A30030300317F6
:101410008D0000308F0003100F300313C5008A11B8
:101420004D258A15893084002608C8002508C70084
:101430002408C6002308C5000230C9008A11F5251A
:101440008A15383003178D0000308F0003140530E3
:101450000313C5008A114D258A153C3003178D00F2
:1014600000308F0003100C300313C5008A114D2586
:101470008A15893084003A08C8003908C70038083E
:10148000C6003708C5000230C9008A11F5258A1543
:10149000433003178D0000308F0003100630031314
:1014A000C5008A114D258A150230F700F70B562A20
:1014B000592A00002608D8002508D7002408D6009D
:1014C0002308D500DC01DB016030DA008030D90070
:1014D0008A1112228A1503186F2A031D722ABC0171
:1014E000BB01AD2AD8018030D7002530D600873027
:1014F000D5002608DC002508DB002408DA002308D4
:10150000D9008A1112228A150318882A031D8D2AF0
:101510000330BC00E130BB00AD2A2608D800250806
:10152000D7002408D6002308D500DC01DB014030B9
:10153000DA008030D9008A11D3208A157A08D800C1
:101540007908D7007808D6007708D5008A1151228B
:101550008A157908BC007808BB000230F700F70B49
:0A156000AF2AB22A00003A28630007
:02400E00713F00
:00000001FF
;PIC16F877A
;CRC=E858  CREATED="18-jun.-21 21:38"
