:1000000004308A004A2C0000D037F231E9326E3ACF
:100010006F10C829A01232173233A0060A002D3003
:10002000840083130008031923280130F800F70126
:10003000F70B1828F80B17284A30F700F70B1E2883
:100040002128800B15288A110A12782C8E30F7008F
:100050002D08F8002C08F900FA01F808031D3A28C9
:100060007908F800F9010830F702F808031D3A286A
:10007000F70142280310F81B4128F90DF80DF7038A
:100080003A28F8138A110A12882C39080319B5285E
:10009000C1003D080319B528C107031856287F3051
:1000A000C102031CB5280319B5285A288130C1079D
:1000B0000318B5284108F700F801F901FA013A08D8
:1000C000C500C5173B08C4003C08C3001830C10078
:1000D000C201431C83284008FA07031C7528F90A4B
:1000E000031D7528F80A0319C2173F08F907031CF6
:1000F0007C28F80A0319C2173E08BB00BB173B084F
:10010000F8070318C217C20DF80CF90CFA0CC50C4D
:10011000C40CC30C0310C10B68280130F707031887
:10012000B528F81B9A28C50DFA0DF90DF80DF7033F
:100130000319B528C51FAB28FA0A031DAB28F90A15
:10014000031DAB28F80A031DAB28F80CF90CFA0CB8
:10015000F70A0319B5283A08C2003E08C206C21FB2
:10016000B328F817B928F813B928F701F801F901ED
:10017000FA010800300803197F29BC00340803196C
:100180007F29BC02031CC9287F30BC0703187F29C4
:10019000CF288130BC02031C7F2903197F293C082A
:1001A000F700F801F901FA01BB013108BA00BA17EA
:1001B0003208B9003308B8001930BC003708B8025B
:1001C0000318F2280130B9020318F228BA02031802
:1001D000F228BB020318F228BB0ABA0AB90A370888
:1001E000B80724293608B90203180D290130BA02CC
:1001F00003180D29BB0203180D29BB0ABA0A3608D9
:10020000B9073708B807031C2429B90A031D242994
:10021000BA0A031D2429BB0A242935088038BA02EA
:10022000031823290130BB0203182329BB0A350810
:100230008038BA073608B907031C0129BA0A031D1A
:100240000129BB0A01297A14BC0B27293229031082
:10025000B80DB90DBA0DBB0D0310FA0DF90DF80D5F
:10026000BD0DDE283D1C3A290310F80CF90CFA0CE0
:10027000BD0C3D29F70303197F29BD1B6629031017
:10028000B80DB90DBA0DBB0D3708B80203185229C5
:100290000130B90203185229BA0203185229BB02CD
:1002A000031C75293608B90203185D290130BA020A
:1002B00003185D29BB02031C752935088038BA0272
:1002C000031866290130BB02031C7529FA0A031DB5
:1002D0007529F90A031D7529F80A031D7529F70AFE
:1002E00003197F29F80CF90CFA0C3108BC00350809
:1002F000BC06BC1F7D29F8178329F8138329F70151
:10030000F801F901FA018A110A12AE2C8030831823
:10031000B506BA01BB013108B9003508B906300885
:100320000319762AB800F700340803197F2AB802A7
:1003300003191B2A031CD9293508BE00BE1736082D
:10034000BD003708BC00BB010310BE0CBD0CBC0CCB
:10035000BB0CB80BA329B91FB0293A14932A3A1041
:1003600038103A16333084008313A82A3A12B91B86
:10037000C329381CCE29BE0CBD0CBC0CBB0CF70A23
:1003800003198E2ACE29BE1BD1290310BB0DBC0D2B
:10039000BD0DBE0DF70303198E2AC3293A173B2A58
:1003A0003A133108B900B91FD729BE17872ABE13DF
:1003B000872A3408B800F7003008B8023108BE00B8
:1003C000BE173208BD003308BC00BB010310BE0CD1
:1003D000BD0CBC0CBB0CB80BE529B91FF229BA1433
:1003E000932ABA103810BA16373084008313A82A1B
:1003F000BA12B91B052A381C102ABE0CBD0CBC0C45
:10040000BB0CF70A03198E2A102ABE1B132A0310ED
:10041000BB0DBC0DBD0DBE0DF70303198E2A052AB9
:10042000BA173B2ABA133508B900B91F192ABE17E3
:10043000872ABE13872A3508BE00BE173608BD00BE
:100440003708BC00B91F282ABE133A15932A3A115F
:10045000BB013810333084008313A82AB91B512AFA
:100460003108B900381C3B2ABE0CBD0CBC0CBB0CBF
:10047000F70A03198E2ABB1F4C2ABC0A031D4C2AFB
:10048000BD0A031D4C2ABE0A031D4C2ABE0CBD0C1E
:10049000BC0CF70A03198E2A3A1BD029BA1B122A60
:1004A000702A8030BE06BE1F592A932A3508B9002B
:1004B000662A3108B900BE08031D662ABD08031D5F
:1004C000662ABC08031D662AF701872ABE1B702A0C
:1004D0000310BB0DBC0DBD0DBE0DF70B662A8E2A99
:1004E000B91F742ABE17872ABE13872A3408F7005B
:1004F0003508BE003608BD003708BC00872A300822
:10050000F7003108BE003208BD003308BC003E08C9
:10051000F8003D08F9003C08FA00C62AF701F80186
:10052000F901FA01C62ABB01BC09BD09BE09BB0914
:10053000BB0A031DA12ABC0A031DA12ABD0A031977
:10054000BE0A3A18AF29BA18F1293A19272A562AA9
:100550000008BC07031CB22ABD0A031DB22ABE0A4A
:100560000319381484030008BD07031CBA2ABE0A05
:100570000319381484030008801F803ABE0703184B
:1005800038143A1AB629BA1AF8292E2A8A110A12E8
:10059000DF2C831603178C170C14000000000318BF
:1005A000F92A83120C087F390313AD0003170D08D5
:1005B0000313AE0003170F080313AF002D080C1E22
:1005C000DF2A99002E0803178D0003132F08031745
:1005D0008F0083168C170C14000000008312031385
:1005E000AC0BF32AF62A83160317F92A182B831665
:1005F000031783120C0D0E0D7F390313AD00031783
:100600000D080313AE0003170F080313AF002D08E6
:100610000C1E082B99002E0803178D0003132F08BA
:1006200003178F008D0A03198F0A0313AC0BC92A15
:100630008A110A12F12CF701F801F901FA01C1013E
:10064000C201C301C40140083F043E043D04031934
:10065000592B2030C5000310B90DBA0DBB0DBC0DD0
:10066000C10DC20DC30DC40D40084402031D422B31
:100670003F084302031D422B3E084202031D422B4A
:100680003D084102031C532B3D08C1023E08031CD8
:100690003E0FC2023F08031C3F0FC3024008031C69
:1006A000400FC4020314F70DF80DF90DFA0DC50B38
:1006B0002B2B41308400831308000408B10030085C
:1006C000B30003197C2B2F08BC002E08BB002D089B
:1006D000BA002C08B900C001BF012030BE00823032
:1006E000BD0045207A08AF007908AE007808AD005B
:1006F0007708AC00B30B632B2F08BC002E08BB009F
:100700002D08BA002C08B9003908B63CB900FA0126
:100710003A08BD00BA170310BA0CBB0CBC0CFA0C9B
:10072000F90CF80CF70CB90B8B2BBD1FA22BF7099A
:10073000F809F909FA09F70A0319F80A0319F90A75
:100740000319FA0A7A08AF007908AE007808AD00FC
:100750007708AC00AF1FB92BB103B116AC09AD09D6
:10076000AE09AF09AC0A0319AD0A0319AE0A0319A1
:10077000AF0A3B30B8009A30B700CA30B600B501B6
:100780000A30B30030080319B10A2F08BC002E0844
:10079000BB002D08BA002C08B9003808C000370883
:1007A000BF003608BE003508BD001B230008AC00A2
:1007B000840A0008AD00840A0008AE00840A00081C
:1007C000AF00FD308407F708031DF92B300A330210
:1007D0000319F92B31080319FB2B0F3933020319C5
:1007E000F32B03182F2CB11B2F2C311BFB2B20308C
:1007F0002A2C2030B105B11E0A2CB1123008031D7D
:10080000B1037708B1002D300C1E042C990031087B
:10081000F700B10130083302031D192C7708B1002D
:100820002E300C1E112C99003108F7002030B10534
:1008300000303030B11E2A2CB1123008031DB10334
:100840007708B1002D300C1E232C99003108F700D9
:10085000B1013030F70777080C1E2C2C99003808AE
:10086000BC003708BB003608BA003508B900C00123
:10087000BF01BE010A30BD001B237A08B800790809
:10088000B7007808B6007708B500B30BC52B8A11FE
:100890000A12FE2C840183131F308305193083163E
:1008A0009900A630980090308312980083161F1488
:1008B0009F141F159F1107309C008312A001A101F6
:1008C00083161F109F101F119F111F1383121F17D4
:1008D0009F1783169F1783121F140030F8001F08FC
:1008E000C73978049F000430AC00FA30AD000F28FF
:1008F000AC0B752C1F151F197B2C83161E08831239
:10090000A2001E08A3002308AD002208AC00262880
:100910007A08BC007908BB007808BA007708B900EB
:10092000C001BF012030BE008130BD0045207708E6
:10093000AC007808AD007908AE007A08AF00B300CB
:100940007908B2007808B1007708B000B701C0306C
:10095000B6007F30B5008830B400BA287A08A70006
:100960007908A6007808A5007708A4002708BC002D
:100970002608BB002508BA002408B9008830C0004A
:10098000C630BF000A30BE008330BD004520770866
:10099000AC007808AD007908AE007A08AF0083108B
:1009A0007A08B3007908B2007808B1007708B0007F
:1009B000B701B6012030B5008230B40086297A082C
:1009C000AB007908AA007808A9007708A8000430CD
:1009D00003178D0000308F0003100D300313AC009F
:1009E000C92A893084002B08AF002A08AE002908E4
:1009F000AD002808AC000230B0005D2B20300C1E8A
:100A0000FF2C99000D300C1E032D99000A300C1E8E
:080A1000072D99006D2C630015
:02400E00713F00
:00000001FF
;PIC16F877A
;CRC=38F7  CREATED="30-may.-21 16:52"
