:1000000003308A00092B0000D630EC3772106537B8
:10001000203B6F36F430EA32A01232173233A0069A
:100020000A002930840083130008031925280130B1
:10003000F800F701F70B1A28F80B19284A30F700D7
:10004000F70B20282328800B17288A110A12372B38
:100050008E30F7002908F8002808F900FA01F8089E
:10006000031D3C287908F800F9010830F702F80868
:10007000031D3C28F70144280310F81B4328F90D01
:10008000F80DF7033C28F8138A110A12472B35089C
:100090000319B728BD0039080319B728BD0703188D
:1000A00058287F30BD02031CB7280319B7285C28E5
:1000B0008130BD070318B7283D08F700F801F901A2
:1000C000FA013608C100C1173708C0003808BF0060
:1000D0001830BD00BE013F1C85283C08FA07031CF0
:1000E0007728F90A031D7728F80A0319BE173B0879
:1000F000F907031C7E28F80A0319BE173A08B7004F
:10010000B7173708F8070318BE17BE0DF80CF90C1F
:10011000FA0CC10CC00CBF0C0310BD0B6A280130D7
:10012000F7070318B728F81B9C28C10DFA0DF90D25
:10013000F80DF7030319B728C11FAD28FA0A031DEC
:10014000AD28F90A031DAD28F80A031DAD28F80CE7
:10015000F90CFA0CF70A0319B7283608BE003A085A
:10016000BE06BE1FB528F817BB28F813BB28F70139
:10017000F801F901FA0108002C0803198129B800D7
:10018000300803198129B802031CCB287F30B80737
:1001900003188129D1288130B802031C8129031951
:1001A00081293808F700F801F901FA01B7012D0893
:1001B000B600B6172E08B5002F08B4001930B800E5
:1001C0003308B4020318F4280130B5020318F428E8
:1001D000B6020318F428B7020318F428B70AB60ABF
:1001E000B50A3308B40726293208B50203180F29C7
:1001F0000130B60203180F29B70203180F29B70AF6
:10020000B60A3208B5073308B407031C2629B50A15
:10021000031D2629B60A031D2629B70A26293108F7
:100220008038B602031825290130B70203182529A2
:10023000B70A31088038B6073208B507031C03290E
:10024000B60A031D0329B70A03297A14B80B292912
:1002500034290310B40DB50DB60DB70D0310FA0D0A
:10026000F90DF80DB90DE028391C3C290310F80CE4
:10027000F90CFA0CB90C3F29F70303198129B91BB2
:1002800068290310B40DB50DB60DB70D3308B402CF
:10029000031854290130B50203185429B602031873
:1002A0005429B702031C77293208B50203185F29C5
:1002B0000130B60203185F29B702031C7729310801
:1002C0008038B602031868290130B702031C772969
:1002D000FA0A031D7729F90A031D7729F80A031D75
:1002E0007729F70A03198129F80CF90CFA0C2D0863
:1002F000B8003108B806B81F7F29F8178529F81308
:100300008529F701F801F901FA018A110A126D2B0A
:10031000831603178C170C14000000000318B8296B
:1003200083120C087F390313A90003170D08031368
:10033000AA0003170F080313AB0029080C1E9E29FF
:1003400099002A0803178D0003132B0803178F0049
:1003500083168C170C140000000083120313A80BE3
:10036000B229B52983160317B829D729831603178D
:1003700083120C0D0E0D7F390313A90003170D080E
:100380000313AA0003170F080313AB0029080C1E60
:10039000C72999002A0803178D0003132B08031798
:1003A0008F008D0A03198F0A0313A80B88298A115D
:1003B0000A127F2BF701F801F901FA01BD01BE0114
:1003C000BF01C0013C083B043A0439040319182A50
:1003D0002030C1000310B50DB60DB70DB80DBD0D21
:1003E000BE0DBF0DC00D3C084002031D012A3B0895
:1003F0003F02031D012A3A083E02031D012A390863
:100400003D02031C122A3908BD023A08031C3A0FA8
:10041000BE023B08031C3B0FBF023C08031C3C0F01
:10042000C0020314F70DF80DF90DFA0DC10BEA29FE
:100430003D308400831308000408AD002C08AF0091
:1004400003193B2A2B08B8002A08B7002908B60070
:100450002808B500BC01BB012030BA008230B900C9
:1004600047207A08AB007908AA007808A900770825
:10047000A800AF0B222A2B08B8002A08B7002908C9
:10048000B6002808B5003508B63CB500FA013608B4
:10049000B900B6170310B60CB70CB80CFA0CF90C6F
:1004A000F80CF70CB50B4A2AB91F612AF709F809AD
:1004B000F909FA09F70A0319F80A0319F90A0319DD
:1004C000FA0A7A08AB007908AA007808A900770828
:1004D000A800AB1F782AAD03AD16A809A909AA097F
:1004E000AB09A80A0319A90A0319AA0A0319AB0A36
:1004F0003B30B4009A30B300CA30B200B1010A30C8
:10050000AF002C080319AD0A2B08B8002A08B70061
:100510002908B6002808B5003408BC003308BB0021
:100520003208BA003108B900DA210008A800840AAC
:100530000008A900840A0008AA00840A0008AB0089
:10054000FD308407F708031DB82A2C0A2F0203196F
:10055000B82A2D080319BA2A0F392F020319B22A13
:100560000318EE2AAD1BEE2A2D1BBA2A2030E92AE9
:100570002030AD05AD1EC92AAD122C08031DAD03F8
:100580007708AD002D300C1EC32A99002D08F70006
:10059000AD012C082F02031DD82A7708AD002E309C
:1005A0000C1ED02A99002D08F7002030AD05003030
:1005B0003030AD1EE92AAD122C08031DAD037708BB
:1005C000AD002D300C1EE22A99002D08F700AD0178
:1005D0003030F70777080C1EEB2A99003408B80072
:1005E0003308B7003208B6003108B500BC01BB01C2
:1005F000BA010A30B900DA217A08B4007908B300E8
:100600007808B2007708B100AF0B842A8A110A1269
:100610008C2B840183131F308305193083169900B6
:10062000A630980090308312980083161F149F14F0
:100630001F159F1107309C008312A001A101831692
:100640001F109F101F119F111F1383121F179F1739
:1006500083169F1783121F140030F8001F08C73934
:1006600078049F000430A800FA30A9001128A80BD4
:10067000342B1F151F193A2B83161E088312A20054
:100680001E08A3002308A9002208A80028287A0829
:10069000B8007908B7007808B6007708B500BC0143
:1006A000BB012030BA008130B90047207708A8008C
:1006B0007808A9007908AA007A08AB00AF00790889
:1006C000AE007808AD007708AC00B301C030B200CE
:1006D0007F30B1008830B000BC287A08A7007908C4
:1006E000A6007808A5007708A400043003178D0041
:1006F00000308F00031011300313A80088298930BF
:1007000084002708AB002608AA002508A9002408B1
:10071000A8000230AC001C2A20300C1E8D2B990042
:100720000D300C1E912B99000A300C1E952B990050
:040730002C2B63000B
:02400E00713F00
:00000001FF
;PIC16F877A
;CRC=36EC  CREATED="25-may.-21 13:15"
