:1000000003308A00782B00000D10C434733A613736
:10001000E3346110BD126610E33600000D10D434D5
:10002000E536F037A01E2533A039E53300008E30C9
:10003000F7002E08F8002D08F900FA01F808031D52
:100040002B287908F800F9010830F702F808031D99
:100050002B28F70133280310F81B3228F90DF80D6F
:10006000F7032B28F8138A110A12DE2B2D08031927
:10007000FB28B90031080319FB28B902031C4528E5
:100080007F30B9070318FB284B288130B902031CC5
:10009000FB280319FB283908F700F801F901FA01D8
:1000A000B8012E08B700B7172F08B6003008B50002
:1000B0001930B9003408B50203186E280130B602B1
:1000C00003186E28B70203186E28B80203186E28AA
:1000D000B80AB70AB60A3408B507A0283308B6022A
:1000E000031889280130B70203188928B8020318B9
:1000F0008928B80AB70A3308B6073408B507031CBD
:10010000A028B60A031DA028B70A031DA028B80A14
:10011000A02832088038B70203189F280130B8029F
:1001200003189F28B80A32088038B7073308B60783
:10013000031C7D28B70A031D7D28B80A7D287A1480
:10014000B90BA328AE280310B50DB60DB70DB80D29
:100150000310FA0DF90DF80DBA0D5A283A1CB628FD
:100160000310F80CF90CFA0CBA0CB928F7030319B0
:10017000FB28BA1BE2280310B50DB60DB70DB80D5C
:100180003408B5020318CE280130B6020318CE2871
:10019000B7020318CE28B802031CF1283308B602B0
:1001A0000318D9280130B7020318D928B802031C54
:1001B000F12832088038B7020318E2280130B8026B
:1001C000031CF128FA0A031DF128F90A031DF1287E
:1001D000F80A031DF128F70A0319FB28F80CF90C9B
:1001E000FA0C2E08B9003208B906B91FF928F81719
:1001F000FF28F813FF28F701F801F901FA018A1125
:100200000A12F42B3A0803197229C2003E08031996
:100210007229C207031813297F30C202031C7229F6
:100220000319722917298130C2070318722942085D
:10023000F700F801F901FA013B08C600C6173C08AF
:10024000C5003D08C4001830C200C301441C402949
:100250004108FA07031C3229F90A031D3229F80A5A
:100260000319C3174008F907031C3929F80A0319B1
:10027000C3173F08BC00BC173C08F8070318C31796
:10028000C30DF80CF90CFA0CC60CC50CC40C031009
:10029000C20B25290130F70703187229F81B5729CB
:1002A000C60DFA0DF90DF80DF70303197229C61FD3
:1002B0006829FA0A031D6829F90A031D6829F80A42
:1002C000031D6829F80CF90CFA0CF70A03197229B6
:1002D0003B08C3003F08C306C31F7029F8177629DF
:1002E000F8137629F701F801F901FA0108000B0863
:1002F000AE008B13831603178C170C14000000003C
:1003000083120313AE1B8B170318AF2903170C08B6
:100310007F390313AE0003170D080313AF00031753
:100320000F080313B0002E080C1E942999002F0803
:1003300003178D000313300803178F0003130B08F6
:10034000B1008B13831603178C170C1400000000E8
:1003500083120313B11B8B17AD0BAF29CF290317E2
:100360000C0D0E0D7F390313AE0003170D08031398
:10037000AF0003170F080313B0002E080C1EBE2990
:1003800099002F0803178D000313300803178F00FF
:100390008D0A03198F0A03100313AD0B7729080088
:1003A0008318D529423084008313F701F801F9013D
:1003B000FA01C201C301C401C501410840043F0460
:1003C0003E040319132A2030C6000310BA0DBB0DDA
:1003D000BC0DBD0DC20DC30DC40DC50D41084502B8
:1003E000031DFC2940084402031DFC293F08430269
:1003F000031DFC293E084202031C0D2A3E08C202CE
:100400003F08031C3F0FC3024008031C400FC402F7
:100410004108031C410FC5020314F70DF80DF90D37
:10042000FA0DC60BE52942088000840A43088000C3
:10043000840A44088000840A4508800008000408F3
:10044000B2003108B40003193E2A3008BD002F085D
:10045000BC002E08BB002D08BA00C101C00120302D
:10046000BF008230BE0002217A08B0007908AF00D8
:100470007808AE007708AD00B40B252A3008BD001F
:100480002F08BC002E08BB002D08BA003A08B63C65
:10049000BA00FA013B08BE00BB170310BB0CBC0C32
:1004A000BD0CFA0CF90CF80CF70CBA0B4D2ABE1F58
:1004B000642AF709F809F909FA09F70A0319F80A89
:1004C0000319F90A0319FA0A7A08B0007908AF008B
:1004D0007808AE007708AD00B01F7B2AB203B216D1
:1004E000AD09AE09AF09B009AD0A0319AE0A031987
:1004F000AF0A0319B00A3B30B9009A30B800CA30CD
:10050000B700B6010A30B40031080319B20A8314E7
:100510002D30840083133008BD002F08BC002E0846
:10052000BB002D08BA003908C1003808C0003708E0
:10053000BF003608BE00D0217808F708031DB32A93
:10054000310A34020319B32A32080319B52A0F39C4
:1005500034020319AD2A0318E92AB21BE92A321B17
:10056000B52A2030E42A2030B205B21EC42AB212C5
:100570003108031DB2037708B2002D300C1EBE2ACD
:1005800099003208F700B20131083402031DD32A62
:100590007708B2002E300C1ECB2A99003208F700E3
:1005A0002030B20500303030B21EE42AB2123108D9
:1005B000031DB2037708B2002D300C1EDD2A99000E
:1005C0003208F700B2013030F70777080C1EE62A30
:1005D000990083103908BD003808BC003708BB00FB
:1005E0003608BA00C101C001BF010A30BE00D021E7
:1005F0007A08B9007908B8007808B7007708B6001B
:10060000B40B872A08002E308400831300080319D6
:10061000172B0130F800F701F70B0C2BF80B0B2B05
:100620004A30F700F70B122B152B800B092B080013
:100630002E08B5003208B506B51F232B0311031091
:10064000AE1B0314562B2E08B5003108B6002D083A
:10065000B6020319312BB51F562B0308013A83004C
:10066000562B3208B6002E08B60203193D2BB51FD3
:10067000562B0308013A8300562B3308B6002F0887
:10068000B6020319492BB51F562B0308013A830004
:10069000562B3408B6003008B6020319552BB51F87
:1006A000562B0308013A8300562B031008008E30A6
:1006B000F7002D08F7022E08F9002F08F800F917A7
:1006C000F70803196E2B0310F908031D6A2BF808AD
:1006D00003196E2BF90CF80CF70B632BAE1F752B5F
:1006E000F809F909F80A0319F90A8A110A12A72C5C
:1006F00003081F398300193083169900A63098002B
:10070000903083129800FF30AC0083161F149F14A2
:100710001F159F1107309C008313853083129000B2
:10072000F930AA000130AB00FE3083168700831237
:10073000AC002C112C0883168700831207110C3093
:100740009700A901A8012908F9002808F800F90C68
:10075000F80CF90CF80CF90C78089500F90C790CE8
:100760003039F7001708CF397704970083168610C1
:10077000831286140230F700F70BBC2BBF2B00004E
:100780008316861083128610831606148312061CA5
:10079000C42B8E018F018E01831606148312061856
:1007A000CC2B0F08FA000E08F7000F087A02031D81
:1007B000D12B7708AD007A08AE0017287A08A70079
:1007C0007908A6007808A5007708A4002708B000DB
:1007D0002608AF002508AE002408AD00B401B3011F
:1007E000B2018030B10036287A08B0007908AF0035
:1007F0007808AE007708AD007A08BD007908BC0023
:100800007808BB007708BA002830C1007E30C000ED
:100810000C30BF007A30BE0002217A08A3007908AC
:10082000A2007808A1007708A000043003178D000B
:1008300000308F0003100D300313AD007721893095
:1008400084002308B0002208AF002108AE00200871
:10085000AD000230B1001F2220300C1E2D2C99005B
:1008600063300C1E312C99006D300C1E352C990014
:100870000E3003178D0000308F0003100A30031371
:10088000AD007721893084002708B0002608AF002A
:100890002508AE002408AD000230B1001F2214303C
:1008A00003178D0000308F00031004300313AD00D8
:1008B00077210230AD00FA30AE000323AD0B5B2C84
:1008C0002308B0002208AF002108AE002008AD00C8
:1008D000B401B3016030B2008030B10018230318B6
:1008E000732C031D762CA901A801AB2CB00180301C
:1008F000AF002530AE008730AD002308B4002208D9
:10090000B3002108B2002008B100182303188A2C74
:10091000031D8F2C0330A900E130A800AB2C230865
:10092000BD002208BC002108BB002008BA00C1019C
:10093000C0014030BF008030BE0002217A08B00004
:100940007908AF007808AE007708AD00572B79081A
:10095000A9007808A800C830AE000323A32B6300C9
:02400E00713F00
:00000001FF
;PIC16F877A
;CRC=3C86  CREATED="15-jun.-21 21:07"
