:1000000000308A0040280000FF00030E8301A10099
:100010000A08A0008A010408A2007708A300780853
:10002000A4007908A5007A08A600831383128C30F7
:100030008400801E1D288C1A2E2822088400230884
:10004000F7002408F8002508F9002608FA0020081F
:100050008A00210E8300FF0E7F0E09008A110A120A
:1000600031288C1E31281A08A9002908453C031D97
:100070003B2808153C2808118C128A110A121D28E9
:10008000840183131F308305193083169900A6302D
:10009000980090308312980083161F149F141F1528
:1000A0009F1107309C008312A701A8010F3083160F
:1000B0008500F03088008312880183168C16C030CA
:1000C00083128B04051C692845300C1E6528990095
:0E00D0006D2841300C1E6A28990062286300DA
:02400E00713F00
:00000001FF
;PIC16F877A
;CRC=4F40  CREATED="10-jun.-21 19:25"
